{
  "contractName": "Beneficiaries",
  "abi": [
    {
      "constant": true,
      "inputs": [],
      "name": "benefactorHash",
      "outputs": [
        {
          "name": "",
          "type": "bytes32"
        }
      ],
      "payable": false,
      "stateMutability": "view",
      "type": "function"
    },
    {
      "constant": true,
      "inputs": [
        {
          "name": "",
          "type": "address"
        }
      ],
      "name": "checkPoints",
      "outputs": [
        {
          "name": "",
          "type": "bool"
        }
      ],
      "payable": false,
      "stateMutability": "view",
      "type": "function"
    },
    {
      "constant": true,
      "inputs": [],
      "name": "operator",
      "outputs": [
        {
          "name": "",
          "type": "address"
        }
      ],
      "payable": false,
      "stateMutability": "view",
      "type": "function"
    },
    {
      "constant": true,
      "inputs": [
        {
          "name": "",
          "type": "address"
        }
      ],
      "name": "amountRedeemed",
      "outputs": [
        {
          "name": "",
          "type": "uint256"
        }
      ],
      "payable": false,
      "stateMutability": "view",
      "type": "function"
    },
    {
      "constant": true,
      "inputs": [],
      "name": "trust",
      "outputs": [
        {
          "name": "",
          "type": "address"
        }
      ],
      "payable": false,
      "stateMutability": "view",
      "type": "function"
    },
    {
      "constant": true,
      "inputs": [],
      "name": "distributionAmount",
      "outputs": [
        {
          "name": "",
          "type": "uint256"
        }
      ],
      "payable": false,
      "stateMutability": "view",
      "type": "function"
    },
    {
      "constant": true,
      "inputs": [],
      "name": "numBenefactors",
      "outputs": [
        {
          "name": "",
          "type": "uint256"
        }
      ],
      "payable": false,
      "stateMutability": "view",
      "type": "function"
    },
    {
      "inputs": [
        {
          "name": "_beneficiaries",
          "type": "address[]"
        },
        {
          "name": "_trust",
          "type": "address"
        }
      ],
      "payable": true,
      "stateMutability": "payable",
      "type": "constructor"
    },
    {
      "anonymous": false,
      "inputs": [
        {
          "indexed": false,
          "name": "_beneficiary",
          "type": "address"
        }
      ],
      "name": "LogBeneficiary",
      "type": "event"
    },
    {
      "constant": false,
      "inputs": [],
      "name": "makeClaim",
      "outputs": [
        {
          "name": "",
          "type": "bool"
        }
      ],
      "payable": false,
      "stateMutability": "nonpayable",
      "type": "function"
    },
    {
      "constant": false,
      "inputs": [
        {
          "name": "_beneficiaries",
          "type": "address[]"
        }
      ],
      "name": "withdraw",
      "outputs": [
        {
          "name": "",
          "type": "bool"
        }
      ],
      "payable": false,
      "stateMutability": "nonpayable",
      "type": "function"
    },
    {
      "constant": false,
      "inputs": [
        {
          "name": "_user",
          "type": "address"
        },
        {
          "name": "_beneficiaries",
          "type": "address[]"
        }
      ],
      "name": "isABeneficiary",
      "outputs": [
        {
          "name": "isBeneficiary",
          "type": "bool"
        }
      ],
      "payable": false,
      "stateMutability": "nonpayable",
      "type": "function"
    }
  ],
  "bytecode": "0x608060405260405180807f68656c6c6f776f726c6400000000000000000000000000000000000000000000815250600a0190506040518091039020600390600019169055604051610fe6380380610fe6833981018060405281019080805182019291906020018051906020019092919050505060006032835110151561008457600080fd5b33600160006101000a81548173ffffffffffffffffffffffffffffffffffffffff021916908373ffffffffffffffffffffffffffffffffffffffff160217905550816000806101000a81548173ffffffffffffffffffffffffffffffffffffffff021916908373ffffffffffffffffffffffffffffffffffffffff16021790555060016004600085600081518110151561011a57fe5b9060200190602002015173ffffffffffffffffffffffffffffffffffffffff1673ffffffffffffffffffffffffffffffffffffffff16815260200190815260200160002060006101000a81548160ff02191690831515021790555060016004600085865181518110151561018a57fe5b9060200190602002015173ffffffffffffffffffffffffffffffffffffffff1673ffffffffffffffffffffffffffffffffffffffff16815260200190815260200160002060006101000a81548160ff0219169083151502179055508260008151811015156101f457fe5b90602001906020020151600354604051602001808373ffffffffffffffffffffffffffffffffffffffff1673ffffffffffffffffffffffffffffffffffffffff166c010000000000000000000000000281526014018260001916600019168152602001925050506040516020818303038152906040526040518082805190602001908083835b60208310151561029f578051825260208201915060208101905060208303925061027a565b6001836020036101000a0380198251168184511680821785525050505050509050019150506040518091039020600381600019169055508283518151811015156102e557fe5b90602001906020020151600354604051602001808373ffffffffffffffffffffffffffffffffffffffff1673ffffffffffffffffffffffffffffffffffffffff166c010000000000000000000000000281526014018260001916600019168152602001925050506040516020818303038152906040526040518082805190602001908083835b602083101515610390578051825260208201915060208101905060208303925061036b565b6001836020036101000a038019825116818451168082178552505050505050905001915050604051809103902060038160001916905550600190505b600183510381101561054f5782818151811015156103e657fe5b90602001906020020151600354604051602001808373ffffffffffffffffffffffffffffffffffffffff1673ffffffffffffffffffffffffffffffffffffffff166c010000000000000000000000000281526014018260001916600019168152602001925050506040516020818303038152906040526040518082805190602001908083835b602083101515610491578051825260208201915060208101905060208303925061046c565b6001836020036101000a0380198251168184511680821785525050505050509050019150506040518091039020600381600019169055507f394644757e7d5671c6bb6053782ddc25b1ebd2311615354aba00268bbb0a912a83828151811015156104f757fe5b90602001906020020151604051808273ffffffffffffffffffffffffffffffffffffffff1673ffffffffffffffffffffffffffffffffffffffff16815260200191505060405180910390a180806001019150506103cc565b34600581905550505050610a7e806105686000396000f3006080604052600436106100a4576000357c0100000000000000000000000000000000000000000000000000000000900463ffffffff1680632b3addab146100a957806334e0ee2e146100dc578063570ca735146101375780636d9c66051461018e5780636f9fdd66146101e557806379aafa681461023c578063b0e0c681146102da578063bd5dec9814610305578063f5aa020014610358578063fe91bb3214610387575b600080fd5b3480156100b557600080fd5b506100be6103b2565b60405180826000191660001916815260200191505060405180910390f35b3480156100e857600080fd5b5061011d600480360381019080803573ffffffffffffffffffffffffffffffffffffffff1690602001909291905050506103b8565b604051808215151515815260200191505060405180910390f35b34801561014357600080fd5b5061014c6103d8565b604051808273ffffffffffffffffffffffffffffffffffffffff1673ffffffffffffffffffffffffffffffffffffffff16815260200191505060405180910390f35b34801561019a57600080fd5b506101cf600480360381019080803573ffffffffffffffffffffffffffffffffffffffff1690602001909291905050506103fe565b6040518082815260200191505060405180910390f35b3480156101f157600080fd5b506101fa610416565b604051808273ffffffffffffffffffffffffffffffffffffffff1673ffffffffffffffffffffffffffffffffffffffff16815260200191505060405180910390f35b34801561024857600080fd5b506102c0600480360381019080803573ffffffffffffffffffffffffffffffffffffffff1690602001909291908035906020019082018035906020019080806020026020016040519081016040528093929190818152602001838360200280828437820191505050505050919291929050505061043b565b604051808215151515815260200191505060405180910390f35b3480156102e657600080fd5b506102ef6106b1565b6040518082815260200191505060405180910390f35b34801561031157600080fd5b5061033e6004803603810190808035906020019082018035906020019190919293919293905050506106b7565b604051808215151515815260200191505060405180910390f35b34801561036457600080fd5b5061036d61084c565b604051808215151515815260200191505060405180910390f35b34801561039357600080fd5b5061039c6109ff565b6040518082815260200191505060405180910390f35b60035481565b60046020528060005260406000206000915054906101000a900460ff1681565b600160009054906101000a900473ffffffffffffffffffffffffffffffffffffffff1681565b60066020528060005260406000206000915090505481565b6000809054906101000a900473ffffffffffffffffffffffffffffffffffffffff1681565b600080600060405180807f68656c6c6f776f726c6400000000000000000000000000000000000000000000815250600a019050604051809103902091506004600085600081518110151561048b57fe5b9060200190602002015173ffffffffffffffffffffffffffffffffffffffff1673ffffffffffffffffffffffffffffffffffffffff16815260200190815260200160002060009054906101000a900460ff16801561054a5750600460008586518151811015156104f757fe5b9060200190602002015173ffffffffffffffffffffffffffffffffffffffff1673ffffffffffffffffffffffffffffffffffffffff16815260200190815260200160002060009054906101000a900460ff165b151561055557600080fd5b600090505b83518110156106a65781848281518110151561057257fe5b906020019060200201516040516020018083600019166000191681526020018273ffffffffffffffffffffffffffffffffffffffff1673ffffffffffffffffffffffffffffffffffffffff166c01000000000000000000000000028152601401925050506040516020818303038152906040526040518082805190602001908083835b60208310151561061a57805182526020820191506020810190506020830392506105f5565b6001836020036101000a038019825116818451168082178552505050505050905001915050604051809103902091508473ffffffffffffffffffffffffffffffffffffffff16848281518110151561066e57fe5b9060200190602002015173ffffffffffffffffffffffffffffffffffffffff16141561069957600192505b808060010191505061055a565b829250505092915050565b60055481565b6000806106f33385858080602002602001604051908101604052809392919081815260200183836020028082843782019150505050505061043b565b15156106fe57600080fd5b610767600660003373ffffffffffffffffffffffffffffffffffffffff1673ffffffffffffffffffffffffffffffffffffffff1681526020019081526020016000205461075986869050600554610a0590919063ffffffff16565b610a1b90919063ffffffff16565b90506107bb81600660003373ffffffffffffffffffffffffffffffffffffffff1673ffffffffffffffffffffffffffffffffffffffff16815260200190815260200160002054610a3490919063ffffffff16565b600660003373ffffffffffffffffffffffffffffffffffffffff1673ffffffffffffffffffffffffffffffffffffffff168152602001908152602001600020819055503373ffffffffffffffffffffffffffffffffffffffff166108fc829081150290604051600060405180830381858888f19350505050158015610844573d6000803e3d6000fd5b505092915050565b6000806000809054906101000a900473ffffffffffffffffffffffffffffffffffffffff1673ffffffffffffffffffffffffffffffffffffffff1663b0e0c6816040518163ffffffff167c0100000000000000000000000000000000000000000000000000000000028152600401602060405180830381600087803b1580156108d457600080fd5b505af11580156108e8573d6000803e3d6000fd5b505050506040513d60208110156108fe57600080fd5b810190808051906020019092919050505090506000809054906101000a900473ffffffffffffffffffffffffffffffffffffffff1673ffffffffffffffffffffffffffffffffffffffff1663be040fb06040518163ffffffff167c0100000000000000000000000000000000000000000000000000000000028152600401602060405180830381600087803b15801561099657600080fd5b505af11580156109aa573d6000803e3d6000fd5b505050506040513d60208110156109c057600080fd5b810190808051906020019092919050505015156109dc57600080fd5b6109f181600554610a3490919063ffffffff16565b600581905550600191505090565b60025481565b60008183811515610a1257fe5b04905092915050565b6000828211151515610a2957fe5b818303905092915050565b6000808284019050838110151515610a4857fe5b80915050929150505600a165627a7a72305820a7f16e9476962bff27a55e55ff614ad4e7b4d1f77cda568e300cc99dabe354fe0029",
  "source": "pragma solidity ^0.4.24;\n\nimport './SafeMath.sol'; \nimport './Trust.sol'; \n\n// @notice This contract allows someone to leave ETH for a beneficiary\n// @notice assumes each beneficiary receives equal amount \n// TODO: test if this saves any gas\ncontract Beneficiaries { \n  using SafeMath for uint; \n\n  Trust public trust; \n\n  address public operator; \n\n  uint public numBenefactors; \n  bytes32 public benefactorHash = keccak256(\"helloworld\");\n\n  mapping (address => bool) public checkPoints;  \n\n  uint public distributionAmount; \n  mapping (address => uint) public amountRedeemed; \n\n\n\n\n  // @param (address) _beneficiary = The ETH address of who is to receive the distributionAmount\n  // @notice can only hold up to 50 beneficiaries\n  // TODO: move this out of constructor\n  constructor(address[] _beneficiaries, address _trust)\n  public \n  payable { \n    require(_beneficiaries.length < 50); \n    operator = msg.sender; \n    trust = Trust(_trust); \n    checkPoints[_beneficiaries[0]] = true;  \n    checkPoints[_beneficiaries[_beneficiaries.length]] = true; \n    benefactorHash = keccak256(abi.encodePacked(_beneficiaries[0], benefactorHash)); \n    benefactorHash = keccak256(abi.encodePacked(_beneficiaries[_beneficiaries.length], benefactorHash)); \n    for (uint i =1; i < _beneficiaries.length - 1; i++){ \n      benefactorHash = keccak256(abi.encodePacked(_beneficiaries[i], benefactorHash)); \n      LogBeneficiary(_beneficiaries[i]);\n    }\n    distributionAmount = msg.value; \n  }\n\n\n  function makeClaim()\n  external \n  returns (bool) { \n    uint claimAmount = trust.distributionAmount(); \n    require(trust.redeem()); \n    distributionAmount = distributionAmount.add(claimAmount); \n    return true;\n  }\n\n\n  function withdraw(address[] _beneficiaries)\n  external \n  returns (bool) { \n    require(isABeneficiary(msg.sender, _beneficiaries)); \n    uint amount = distributionAmount.div(_beneficiaries.length).sub(amountRedeemed[msg.sender]); \n    amountRedeemed[msg.sender] = amountRedeemed[msg.sender].add(amount); \n    msg.sender.transfer(amount); \n  }\n\n\n  function isABeneficiary(address _user, address[] _beneficiaries)\n  public \n  returns (bool isBeneficiary) { \n    bytes32 verificationHash = keccak256(\"helloworld\"); \n    require(checkPoints[_beneficiaries[0]] && checkPoints[_beneficiaries[_beneficiaries.length]]); \n    for (uint i = 0; i < _beneficiaries.length; i++) { \n      verificationHash = keccak256(abi.encodePacked(verificationHash, _beneficiaries[i]));\n      if (_beneficiaries[i] == _user) { isBeneficiary = true; }\n    }\n    return isBeneficiary; \n  }\n\n  event LogBeneficiary(address _beneficiary); \n\n  }\n",
  "sourcePath": "/home/dog/Code/mybit/petprojects/trust/contracts/EqualDistributionLight.sol",
  "compiler": {
    "name": "solc",
    "version": "0.4.24+commit.e67f0147.Emscripten.clang"
  },
  "schemaVersion": "2.0.0",
  "updatedAt": "2018-08-07T13:06:53.679Z"
}