{
  "contractName": "EqualDistributionLight",
  "abi": [
    {
      "constant": true,
      "inputs": [
        {
          "name": "",
          "type": "address"
        }
      ],
      "name": "checkPoints",
      "outputs": [
        {
          "name": "",
          "type": "bool"
        }
      ],
      "payable": false,
      "stateMutability": "view",
      "type": "function"
    },
    {
      "constant": true,
      "inputs": [],
      "name": "beneficiaryListHash",
      "outputs": [
        {
          "name": "",
          "type": "bytes32"
        }
      ],
      "payable": false,
      "stateMutability": "view",
      "type": "function"
    },
    {
      "constant": true,
      "inputs": [],
      "name": "operator",
      "outputs": [
        {
          "name": "",
          "type": "address"
        }
      ],
      "payable": false,
      "stateMutability": "view",
      "type": "function"
    },
    {
      "constant": true,
      "inputs": [
        {
          "name": "",
          "type": "address"
        }
      ],
      "name": "amountRedeemed",
      "outputs": [
        {
          "name": "",
          "type": "uint256"
        }
      ],
      "payable": false,
      "stateMutability": "view",
      "type": "function"
    },
    {
      "constant": true,
      "inputs": [],
      "name": "pullPayment",
      "outputs": [
        {
          "name": "",
          "type": "address"
        }
      ],
      "payable": false,
      "stateMutability": "view",
      "type": "function"
    },
    {
      "constant": true,
      "inputs": [],
      "name": "totalReleased",
      "outputs": [
        {
          "name": "",
          "type": "uint256"
        }
      ],
      "payable": false,
      "stateMutability": "view",
      "type": "function"
    },
    {
      "inputs": [
        {
          "name": "_beneficiaries",
          "type": "address[]"
        }
      ],
      "payable": true,
      "stateMutability": "payable",
      "type": "constructor"
    },
    {
      "payable": true,
      "stateMutability": "payable",
      "type": "fallback"
    },
    {
      "anonymous": false,
      "inputs": [
        {
          "indexed": false,
          "name": "_beneficiary",
          "type": "address"
        }
      ],
      "name": "LogBeneficiary",
      "type": "event"
    },
    {
      "anonymous": false,
      "inputs": [
        {
          "indexed": false,
          "name": "_sender",
          "type": "address"
        },
        {
          "indexed": false,
          "name": "_amount",
          "type": "uint256"
        }
      ],
      "name": "LogPayment",
      "type": "event"
    },
    {
      "anonymous": false,
      "inputs": [
        {
          "indexed": false,
          "name": "_beneficiary",
          "type": "address"
        },
        {
          "indexed": false,
          "name": "_amount",
          "type": "uint256"
        }
      ],
      "name": "LogWithdraw",
      "type": "event"
    },
    {
      "constant": false,
      "inputs": [
        {
          "name": "_contractAddress",
          "type": "address"
        }
      ],
      "name": "getFunds",
      "outputs": [
        {
          "name": "",
          "type": "bool"
        }
      ],
      "payable": false,
      "stateMutability": "nonpayable",
      "type": "function"
    },
    {
      "constant": false,
      "inputs": [
        {
          "name": "_beneficiaries",
          "type": "address[]"
        }
      ],
      "name": "withdraw",
      "outputs": [
        {
          "name": "",
          "type": "bool"
        }
      ],
      "payable": false,
      "stateMutability": "nonpayable",
      "type": "function"
    },
    {
      "constant": true,
      "inputs": [
        {
          "name": "_user",
          "type": "address"
        },
        {
          "name": "_beneficiaries",
          "type": "address[]"
        }
      ],
      "name": "isABeneficiary",
      "outputs": [
        {
          "name": "isBeneficiary",
          "type": "bool"
        }
      ],
      "payable": false,
      "stateMutability": "view",
      "type": "function"
    }
  ],
  "bytecode": "0x608060405260405180807f68656c6c6f776f726c6400000000000000000000000000000000000000000000815250600a0190506040518091039020600290600019169055604051610ebb380380610ebb8339810180604052810190808051820192919050505060006032825110151561007757600080fd5b33600160006101000a81548173ffffffffffffffffffffffffffffffffffffffff021916908373ffffffffffffffffffffffffffffffffffffffff1602179055506001600360008460008151811015156100cd57fe5b9060200190602002015173ffffffffffffffffffffffffffffffffffffffff1673ffffffffffffffffffffffffffffffffffffffff16815260200190815260200160002060006101000a81548160ff02191690831515021790555060016003600084855181518110151561013d57fe5b9060200190602002015173ffffffffffffffffffffffffffffffffffffffff1673ffffffffffffffffffffffffffffffffffffffff16815260200190815260200160002060006101000a81548160ff0219169083151502179055508160008151811015156101a757fe5b90602001906020020151600254604051602001808373ffffffffffffffffffffffffffffffffffffffff1673ffffffffffffffffffffffffffffffffffffffff166c010000000000000000000000000281526014018260001916600019168152602001925050506040516020818303038152906040526040518082805190602001908083835b602083101515610252578051825260208201915060208101905060208303925061022d565b6001836020036101000a038019825116818451168082178552505050505050905001915050604051809103902060028160001916905550600190505b815181101561040e5781818151811015156102a557fe5b90602001906020020151600254604051602001808373ffffffffffffffffffffffffffffffffffffffff1673ffffffffffffffffffffffffffffffffffffffff166c010000000000000000000000000281526014018260001916600019168152602001925050506040516020818303038152906040526040518082805190602001908083835b602083101515610350578051825260208201915060208101905060208303925061032b565b6001836020036101000a0380198251168184511680821785525050505050509050019150506040518091039020600281600019169055507f394644757e7d5671c6bb6053782ddc25b1ebd2311615354aba00268bbb0a912a82828151811015156103b657fe5b90602001906020020151604051808273ffffffffffffffffffffffffffffffffffffffff1673ffffffffffffffffffffffffffffffffffffffff16815260200191505060405180910390a1808060010191505061028e565b5050610a9c8061041f6000396000f300608060405260043610610099576000357c0100000000000000000000000000000000000000000000000000000000900463ffffffff16806334e0ee2e14610106578063503c8ee714610161578063570ca735146101945780636d9c6605146101eb57806379aafa6814610242578063b394d4b4146102e0578063bd5dec9814610337578063decebbce1461038a578063e33b7de3146103e5575b7f27a391d95d67e3626574fb5fbe3532bb7366e9254957b1f0e840953c248b2aa83334604051808373ffffffffffffffffffffffffffffffffffffffff1673ffffffffffffffffffffffffffffffffffffffff1681526020018281526020019250505060405180910390a1005b34801561011257600080fd5b50610147600480360381019080803573ffffffffffffffffffffffffffffffffffffffff169060200190929190505050610410565b604051808215151515815260200191505060405180910390f35b34801561016d57600080fd5b50610176610430565b60405180826000191660001916815260200191505060405180910390f35b3480156101a057600080fd5b506101a9610436565b604051808273ffffffffffffffffffffffffffffffffffffffff1673ffffffffffffffffffffffffffffffffffffffff16815260200191505060405180910390f35b3480156101f757600080fd5b5061022c600480360381019080803573ffffffffffffffffffffffffffffffffffffffff16906020019092919050505061045c565b6040518082815260200191505060405180910390f35b34801561024e57600080fd5b506102c6600480360381019080803573ffffffffffffffffffffffffffffffffffffffff16906020019092919080359060200190820180359060200190808060200260200160405190810160405280939291908181526020018383602002808284378201915050505050509192919290505050610474565b604051808215151515815260200191505060405180910390f35b3480156102ec57600080fd5b506102f56106ff565b604051808273ffffffffffffffffffffffffffffffffffffffff1673ffffffffffffffffffffffffffffffffffffffff16815260200191505060405180910390f35b34801561034357600080fd5b50610370600480360381019080803590602001908201803590602001919091929391929390505050610724565b604051808215151515815260200191505060405180910390f35b34801561039657600080fd5b506103cb600480360381019080803573ffffffffffffffffffffffffffffffffffffffff169060200190929190505050610968565b604051808215151515815260200191505060405180910390f35b3480156103f157600080fd5b506103fa610a1d565b6040518082815260200191505060405180910390f35b60036020528060005260406000206000915054906101000a900460ff1681565b60025481565b600160009054906101000a900473ffffffffffffffffffffffffffffffffffffffff1681565b60056020528060005260406000206000915090505481565b600080600060405180807f68656c6c6f776f726c6400000000000000000000000000000000000000000000815250600a01905060405180910390209150600360008560008151811015156104c457fe5b9060200190602002015173ffffffffffffffffffffffffffffffffffffffff1673ffffffffffffffffffffffffffffffffffffffff16815260200190815260200160002060009054906101000a900460ff16801561058357506003600085865181518110151561053057fe5b9060200190602002015173ffffffffffffffffffffffffffffffffffffffff1673ffffffffffffffffffffffffffffffffffffffff16815260200190815260200160002060009054906101000a900460ff165b151561058e57600080fd5b600090505b83518110156106df578184828151811015156105ab57fe5b906020019060200201516040516020018083600019166000191681526020018273ffffffffffffffffffffffffffffffffffffffff1673ffffffffffffffffffffffffffffffffffffffff166c01000000000000000000000000028152601401925050506040516020818303038152906040526040518082805190602001908083835b602083101515610653578051825260208201915060208101905060208303925061062e565b6001836020036101000a038019825116818451168082178552505050505050905001915050604051809103902091508473ffffffffffffffffffffffffffffffffffffffff1684828151811015156106a757fe5b9060200190602002015173ffffffffffffffffffffffffffffffffffffffff1614156106d257600192505b8080600101915050610593565b6002546000191682600019161480156106f55750825b9250505092915050565b6000809054906101000a900473ffffffffffffffffffffffffffffffffffffffff1681565b60008061076033858580806020026020016040519081016040528093929190818152602001838360200280828437820191505050505050610474565b151561076b57600080fd5b6107fd600560003373ffffffffffffffffffffffffffffffffffffffff1673ffffffffffffffffffffffffffffffffffffffff168152602001908152602001600020546107ef868690506107e16004543073ffffffffffffffffffffffffffffffffffffffff1631610a2390919063ffffffff16565b610a4190919063ffffffff16565b610a5790919063ffffffff16565b905061085181600560003373ffffffffffffffffffffffffffffffffffffffff1673ffffffffffffffffffffffffffffffffffffffff16815260200190815260200160002054610a2390919063ffffffff16565b600560003373ffffffffffffffffffffffffffffffffffffffff1673ffffffffffffffffffffffffffffffffffffffff168152602001908152602001600020819055506108a981600454610a2390919063ffffffff16565b6004819055503373ffffffffffffffffffffffffffffffffffffffff166108fc829081150290604051600060405180830381858888f193505050501580156108f5573d6000803e3d6000fd5b507f4ce7033d118120e254016dccf195288400b28fc8936425acd5f17ce2df3ab7083382604051808373ffffffffffffffffffffffffffffffffffffffff1673ffffffffffffffffffffffffffffffffffffffff1681526020018281526020019250505060405180910390a15092915050565b60008173ffffffffffffffffffffffffffffffffffffffff16633ccfd60b6040518163ffffffff167c0100000000000000000000000000000000000000000000000000000000028152600401602060405180830381600087803b1580156109ce57600080fd5b505af11580156109e2573d6000803e3d6000fd5b505050506040513d60208110156109f857600080fd5b81019080805190602001909291905050501515610a1457600080fd5b60019050919050565b60045481565b6000808284019050838110151515610a3757fe5b8091505092915050565b60008183811515610a4e57fe5b04905092915050565b6000828211151515610a6557fe5b8183039050929150505600a165627a7a723058206a1353a86f6deff4a1663a16fe27bdb082edecbc521f71d5edabf8dff78b836d0029",
  "source": "pragma solidity ^0.4.24;\n\nimport '../SafeMath.sol';\nimport '../interfaces/PullPayment.sol';\n\n// @title A contract made to equally distribute payments amongs a list of beneficiaries\n// @author Kyle Dewhurst, MyBit Foundation\n// @notice This contract allows someone to leave ETH for a list of beneficiaries\n// @dev contract only saves minimal information. Beneficiary list must be re-constructed using event logs\n// TODO: test up to what length of beneficiaries this saves any gas\ncontract EqualDistributionLight {\n  using SafeMath for uint;\n\n\n  PullPayment public pullPayment;                // Interface for withdrawing funds from contracts\n\n  address public operator;    // Creator of distribution contract\n\n  bytes32 public beneficiaryListHash = keccak256(\"helloworld\");      // The initial hash that is used to store a proof of each beneficiary\n\n  mapping (address => bool) public checkPoints;              // Used as proofs at the beginning and end of arrays to prove the list is valid\n\n  uint public totalReleased;                        // Total WEI so far released to beneficiaries\n  mapping (address => uint) public amountRedeemed;           // Amount WEI released to a particular beneficiary\n\n\n\n\n  // @notice doesn't save the addresses of all beneficiaries, but saves a hash which can later be used to prove beneficiary address\n  // @dev look through LogBeneficiary event logs to find all addresses\n  // @param _beneficiaries (address) = The ETH addresses of who is to receive income\n  // TODO: move this out of constructor\n  constructor(address[] _beneficiaries)\n  public\n  payable {\n    require(_beneficiaries.length < 50);\n    operator = msg.sender;\n    checkPoints[_beneficiaries[0]] = true;\n    checkPoints[_beneficiaries[_beneficiaries.length]] = true;\n    beneficiaryListHash = keccak256(abi.encodePacked(_beneficiaries[0], beneficiaryListHash));\n    for (uint i =1; i < _beneficiaries.length; i++){\n      beneficiaryListHash = keccak256(abi.encodePacked(_beneficiaries[i], beneficiaryListHash));\n      emit LogBeneficiary(_beneficiaries[i]);\n    }\n  }\n\n  // @notice allows beneficiaries to withdraw from contracts at different locations to be re-distributed here\n  // @dev can call withdraw() on any address if there are no parameters required. Fallback function will be triggered\n  // @param (address) _contractAddress = The address to call withdraw() on.\n  function getFunds(address _contractAddress)\n  external\n  returns (bool) {\n    require(PullPayment(_contractAddress).withdraw());\n    return true;\n  }\n\n  // @notice beneficiaries can withdraw their share of the income here\n  function withdraw(address[] _beneficiaries)\n  external\n  returns (bool) {\n    require(isABeneficiary(msg.sender, _beneficiaries));\n    uint amount = address(this).balance.add(totalReleased).div(_beneficiaries.length).sub(amountRedeemed[msg.sender]);\n    amountRedeemed[msg.sender] = amountRedeemed[msg.sender].add(amount);\n    totalReleased = totalReleased.add(amount);\n    msg.sender.transfer(amount);\n    emit LogWithdraw(msg.sender, amount);\n  }\n\n  // @notice check if the address is one of the beneficiaries\n  // @dev will loop through verificationHashes to check if _user is a _beneficiary\n  // @dev _beneficiary list must contain every beneficiary in the correct order\n  // @param (address) _user = The address to query if it is a beneficiary\n  // @param (address[]) _beneficiaries = The list of beneficiaries on the platform\n  function isABeneficiary(address _user, address[] _beneficiaries)\n  public\n  view\n  returns (bool isBeneficiary) {\n    bytes32 verificationHash = keccak256(\"helloworld\");\n    require(checkPoints[_beneficiaries[0]] && checkPoints[_beneficiaries[_beneficiaries.length]]);\n    for (uint i = 0; i < _beneficiaries.length; i++) {\n      verificationHash = keccak256(abi.encodePacked(verificationHash, _beneficiaries[i]));\n      if (_beneficiaries[i] == _user) { isBeneficiary = true; }\n    }\n    return (verificationHash == beneficiaryListHash) && isBeneficiary;\n  }\n\n\n  // @notice fallback function\n  function ()\n  public\n  payable {\n    emit LogPayment(msg.sender, msg.value);\n  }\n\n  event LogBeneficiary(address _beneficiary);\n  event LogPayment(address _sender, uint _amount);\n  event LogWithdraw(address _beneficiary, uint _amount);\n\n}\n",
  "sourcePath": "/home/dog/Code/mybit/petprojects/trust/ethereum/contracts/distribution/EqualDistributionLight.sol",
  "compiler": {
    "name": "solc",
    "version": "0.4.24+commit.e67f0147.Emscripten.clang"
  },
  "schemaVersion": "2.0.0",
  "updatedAt": "2018-08-22T11:36:17.616Z"
}