{
  "contractName": "MyBitBurner",
  "abi": [
    {
      "constant": true,
      "inputs": [],
      "name": "owner",
      "outputs": [
        {
          "name": "",
          "type": "address"
        }
      ],
      "payable": false,
      "stateMutability": "view",
      "type": "function"
    },
    {
      "constant": true,
      "inputs": [],
      "name": "mybToken",
      "outputs": [
        {
          "name": "",
          "type": "address"
        }
      ],
      "payable": false,
      "stateMutability": "view",
      "type": "function"
    },
    {
      "constant": true,
      "inputs": [
        {
          "name": "",
          "type": "address"
        }
      ],
      "name": "authorizedBurner",
      "outputs": [
        {
          "name": "",
          "type": "bool"
        }
      ],
      "payable": false,
      "stateMutability": "view",
      "type": "function"
    },
    {
      "inputs": [
        {
          "name": "_myBitTokenAddress",
          "type": "address"
        }
      ],
      "payable": false,
      "stateMutability": "nonpayable",
      "type": "constructor"
    },
    {
      "anonymous": false,
      "inputs": [
        {
          "indexed": true,
          "name": "_tokenHolder",
          "type": "address"
        },
        {
          "indexed": true,
          "name": "_burningContract",
          "type": "address"
        },
        {
          "indexed": false,
          "name": "_amount",
          "type": "uint256"
        }
      ],
      "name": "LogMYBBurned",
      "type": "event"
    },
    {
      "anonymous": false,
      "inputs": [
        {
          "indexed": false,
          "name": "_owner",
          "type": "address"
        },
        {
          "indexed": false,
          "name": "_burningContract",
          "type": "address"
        }
      ],
      "name": "LogBurnerAuthorized",
      "type": "event"
    },
    {
      "anonymous": false,
      "inputs": [
        {
          "indexed": false,
          "name": "_owner",
          "type": "address"
        },
        {
          "indexed": false,
          "name": "_burningContract",
          "type": "address"
        }
      ],
      "name": "LogBurnerRemoved",
      "type": "event"
    },
    {
      "constant": false,
      "inputs": [
        {
          "name": "_tokenHolder",
          "type": "address"
        },
        {
          "name": "_amount",
          "type": "uint256"
        }
      ],
      "name": "burn",
      "outputs": [
        {
          "name": "",
          "type": "bool"
        }
      ],
      "payable": false,
      "stateMutability": "nonpayable",
      "type": "function"
    },
    {
      "constant": false,
      "inputs": [
        {
          "name": "_burningContract",
          "type": "address"
        }
      ],
      "name": "authorizeBurner",
      "outputs": [
        {
          "name": "",
          "type": "bool"
        }
      ],
      "payable": false,
      "stateMutability": "nonpayable",
      "type": "function"
    },
    {
      "constant": false,
      "inputs": [
        {
          "name": "_burningContract",
          "type": "address"
        }
      ],
      "name": "removeBurner",
      "outputs": [
        {
          "name": "",
          "type": "bool"
        }
      ],
      "payable": false,
      "stateMutability": "nonpayable",
      "type": "function"
    }
  ],
  "bytecode": "0x608060405234801561001057600080fd5b50604051602080610a5c83398101806040528101908080519060200190929190505050806000806101000a81548173ffffffffffffffffffffffffffffffffffffffff021916908373ffffffffffffffffffffffffffffffffffffffff16021790555033600160006101000a81548173ffffffffffffffffffffffffffffffffffffffff021916908373ffffffffffffffffffffffffffffffffffffffff16021790555050610998806100c46000396000f300608060405260043610610078576000357c0100000000000000000000000000000000000000000000000000000000900463ffffffff168063028468581461007d57806334376ca0146100d85780638da5cb5b146101335780639dc29fac1461018a578063bdad900d146101ef578063eac0448d14610246575b600080fd5b34801561008957600080fd5b506100be600480360381019080803573ffffffffffffffffffffffffffffffffffffffff1690602001909291905050506102a1565b604051808215151515815260200191505060405180910390f35b3480156100e457600080fd5b50610119600480360381019080803573ffffffffffffffffffffffffffffffffffffffff169060200190929190505050610446565b604051808215151515815260200191505060405180910390f35b34801561013f57600080fd5b506101486105f5565b604051808273ffffffffffffffffffffffffffffffffffffffff1673ffffffffffffffffffffffffffffffffffffffff16815260200191505060405180910390f35b34801561019657600080fd5b506101d5600480360381019080803573ffffffffffffffffffffffffffffffffffffffff1690602001909291908035906020019092919050505061061b565b604051808215151515815260200191505060405180910390f35b3480156101fb57600080fd5b50610204610927565b604051808273ffffffffffffffffffffffffffffffffffffffff1673ffffffffffffffffffffffffffffffffffffffff16815260200191505060405180910390f35b34801561025257600080fd5b50610287600480360381019080803573ffffffffffffffffffffffffffffffffffffffff16906020019092919050505061094c565b604051808215151515815260200191505060405180910390f35b6000600160009054906101000a900473ffffffffffffffffffffffffffffffffffffffff1673ffffffffffffffffffffffffffffffffffffffff163373ffffffffffffffffffffffffffffffffffffffff161415156102ff57600080fd5b600260003373ffffffffffffffffffffffffffffffffffffffff1673ffffffffffffffffffffffffffffffffffffffff16815260200190815260200160002060009054906101000a900460ff16151561035757600080fd5b600260008373ffffffffffffffffffffffffffffffffffffffff1673ffffffffffffffffffffffffffffffffffffffff16815260200190815260200160002060006101000a81549060ff02191690557fecd371131643ad82a1ff7354a1c2c90d3f05c2b4eddec9c137d8f546922edb4f3383604051808373ffffffffffffffffffffffffffffffffffffffff1673ffffffffffffffffffffffffffffffffffffffff1681526020018273ffffffffffffffffffffffffffffffffffffffff1673ffffffffffffffffffffffffffffffffffffffff1681526020019250505060405180910390a160019050919050565b6000600160009054906101000a900473ffffffffffffffffffffffffffffffffffffffff1673ffffffffffffffffffffffffffffffffffffffff163373ffffffffffffffffffffffffffffffffffffffff161415156104a457600080fd5b600260003373ffffffffffffffffffffffffffffffffffffffff1673ffffffffffffffffffffffffffffffffffffffff16815260200190815260200160002060009054906101000a900460ff161515156104fd57600080fd5b6001600260008473ffffffffffffffffffffffffffffffffffffffff1673ffffffffffffffffffffffffffffffffffffffff16815260200190815260200160002060006101000a81548160ff0219169083151502179055507feac9f8ba2060889a150970f57c3dc197c983f39a315533d66c967fcdcb6c14f33383604051808373ffffffffffffffffffffffffffffffffffffffff1673ffffffffffffffffffffffffffffffffffffffff1681526020018273ffffffffffffffffffffffffffffffffffffffff1673ffffffffffffffffffffffffffffffffffffffff1681526020019250505060405180910390a160019050919050565b600160009054906101000a900473ffffffffffffffffffffffffffffffffffffffff1681565b6000600260003373ffffffffffffffffffffffffffffffffffffffff1673ffffffffffffffffffffffffffffffffffffffff16815260200190815260200160002060009054906101000a900460ff16151561067557600080fd5b816000809054906101000a900473ffffffffffffffffffffffffffffffffffffffff1673ffffffffffffffffffffffffffffffffffffffff1663dd62ed3e85306040518363ffffffff167c0100000000000000000000000000000000000000000000000000000000028152600401808373ffffffffffffffffffffffffffffffffffffffff1673ffffffffffffffffffffffffffffffffffffffff1681526020018273ffffffffffffffffffffffffffffffffffffffff1673ffffffffffffffffffffffffffffffffffffffff16815260200192505050602060405180830381600087803b15801561076657600080fd5b505af115801561077a573d6000803e3d6000fd5b505050506040513d602081101561079057600080fd5b8101908080519060200190929190505050101515156107ae57600080fd5b6000809054906101000a900473ffffffffffffffffffffffffffffffffffffffff1673ffffffffffffffffffffffffffffffffffffffff166379cc679084846040518363ffffffff167c0100000000000000000000000000000000000000000000000000000000028152600401808373ffffffffffffffffffffffffffffffffffffffff1673ffffffffffffffffffffffffffffffffffffffff16815260200182815260200192505050602060405180830381600087803b15801561087257600080fd5b505af1158015610886573d6000803e3d6000fd5b505050506040513d602081101561089c57600080fd5b810190808051906020019092919050505015156108b857600080fd5b3373ffffffffffffffffffffffffffffffffffffffff168373ffffffffffffffffffffffffffffffffffffffff167fc87395c9a7116ce3ca8faa3215953102d6de8710810272a66800b11bbb588aa6846040518082815260200191505060405180910390a36001905092915050565b6000809054906101000a900473ffffffffffffffffffffffffffffffffffffffff1681565b60026020528060005260406000206000915054906101000a900460ff16815600a165627a7a72305820d7f038fe5556de2af4d8801c1544684d1f144657499842689898f8fcedd8b4910029",
  "source": "pragma solidity ^0.4.24;\n\nimport './token/BurnableERC20.sol';\n\n/// @title A contract for burning MYB tokens as usage fee for dapps \n/// @author Kyle Dewhurst, MyBit Foundation\n/// @notice Allows Dapps to call this contract to burn MYB as a usage fee\ncontract MyBitBurner {\n\n  BurnableERC20 public mybToken;  // The instance of the MyBitBurner contract\n  address public owner;           // Owner can add or remove authorized contracts \n\n  mapping (address => bool) public authorizedBurner;    // A mapping showing which addresses are allowed to call the burn function\n\n  // @notice constructor: instantiates myb token address and sets owner\n  // @param (address) _myBitTokenAddress = The MyBit token address \n  constructor(address _myBitTokenAddress)\n  public {\n    mybToken = BurnableERC20(_myBitTokenAddress);\n    owner = msg.sender;\n  }\n\n  // @notice authorized contracts can burn mybit tokens here if the user has approved this contract to do so\n  // @param (address) _tokenHolder = the address of the mybit token holder who wishes to burn _amount of tokens \n  // @param (uint) _amount = the amount of tokens to be burnt (must include decimal places)\n  function burn(address _tokenHolder, uint _amount)\n  external\n  returns (bool) {\n    require(authorizedBurner[msg.sender]);\n    require(mybToken.allowance(_tokenHolder, address(this)) >= _amount); \n    require(mybToken.burnFrom(_tokenHolder, _amount));\n    emit LogMYBBurned(_tokenHolder, msg.sender, _amount);\n    return true;\n  }\n\n  // @notice owner can authorize a contract to burn MyBit here \n  // @param the address of the mybit dapp contract\n  function authorizeBurner(address _burningContract)\n  external\n  returns (bool) {\n    require(msg.sender == owner);\n    require(!authorizedBurner[msg.sender]);\n    authorizedBurner[_burningContract] = true;\n    emit LogBurnerAuthorized(msg.sender, _burningContract);\n    return true;\n  }\n\n  // @notice owner can revoke a contracts authorization to burn MyBit here \n  // @param the address of the mybit dapp contract\n  function removeBurner(address _burningContract)\n  external\n  returns (bool) {\n    require(msg.sender == owner);\n    require(authorizedBurner[msg.sender]);\n    delete authorizedBurner[_burningContract];\n    emit LogBurnerRemoved(msg.sender, _burningContract); \n    return true;\n  }\n\n  //////////////////////////////////////////////////////////////////////////////////////////////////////////////////\n  //                                            Modifiers\n  //////////////////////////////////////////////////////////////////////////////////////////////////////////////////\n\n  // @notice reverts if msg.sender isn't the owner\n  modifier onlyOwner {\n    require(msg.sender == owner);\n    _;\n  }\n\n  event LogMYBBurned(address indexed _tokenHolder, address indexed _burningContract, uint _amount);\n  event LogBurnerAuthorized(address _owner, address _burningContract);\n  event LogBurnerRemoved(address _owner, address _burningContract); \n}\n",
  "sourcePath": "/home/dog/Code/mybit/microdapps/trust/ethereum/contracts/MyBitBurner.sol",
  "compiler": {
    "name": "solc",
    "version": "0.4.24+commit.e67f0147.Emscripten.clang"
  },
  "schemaVersion": "2.0.0",
  "updatedAt": "2018-08-23T07:49:02.481Z"
}