{
  "contractName": "TrustFactory",
  "abi": [
    {
      "constant": true,
      "inputs": [],
      "name": "expired",
      "outputs": [
        {
          "name": "",
          "type": "bool"
        }
      ],
      "payable": false,
      "stateMutability": "view",
      "type": "function"
    },
    {
      "constant": true,
      "inputs": [],
      "name": "mybFee",
      "outputs": [
        {
          "name": "",
          "type": "uint256"
        }
      ],
      "payable": false,
      "stateMutability": "view",
      "type": "function"
    },
    {
      "constant": true,
      "inputs": [],
      "name": "owner",
      "outputs": [
        {
          "name": "",
          "type": "address"
        }
      ],
      "payable": false,
      "stateMutability": "view",
      "type": "function"
    },
    {
      "constant": true,
      "inputs": [],
      "name": "mybBurner",
      "outputs": [
        {
          "name": "",
          "type": "address"
        }
      ],
      "payable": false,
      "stateMutability": "view",
      "type": "function"
    },
    {
      "inputs": [
        {
          "name": "_mybTokenBurner",
          "type": "address"
        }
      ],
      "payable": false,
      "stateMutability": "nonpayable",
      "type": "constructor"
    },
    {
      "anonymous": false,
      "inputs": [
        {
          "indexed": true,
          "name": "_trustor",
          "type": "address"
        },
        {
          "indexed": true,
          "name": "_beneficiary",
          "type": "address"
        },
        {
          "indexed": false,
          "name": "_trustAddress",
          "type": "address"
        },
        {
          "indexed": false,
          "name": "_amount",
          "type": "uint256"
        }
      ],
      "name": "LogNewTrust",
      "type": "event"
    },
    {
      "anonymous": false,
      "inputs": [
        {
          "indexed": false,
          "name": "_oldFee",
          "type": "uint256"
        },
        {
          "indexed": false,
          "name": "_newFee",
          "type": "uint256"
        }
      ],
      "name": "LogMYBFeeChange",
      "type": "event"
    },
    {
      "constant": false,
      "inputs": [
        {
          "name": "_beneficiary",
          "type": "address"
        },
        {
          "name": "_revokeable",
          "type": "bool"
        },
        {
          "name": "_blocksUntilExpiration",
          "type": "uint256"
        }
      ],
      "name": "deployTrust",
      "outputs": [],
      "payable": true,
      "stateMutability": "payable",
      "type": "function"
    },
    {
      "constant": false,
      "inputs": [],
      "name": "closeFactory",
      "outputs": [],
      "payable": false,
      "stateMutability": "nonpayable",
      "type": "function"
    },
    {
      "constant": false,
      "inputs": [
        {
          "name": "_newFee",
          "type": "uint256"
        }
      ],
      "name": "changeMYBFee",
      "outputs": [],
      "payable": false,
      "stateMutability": "nonpayable",
      "type": "function"
    }
  ],
  "bytecode": "0x6080604052680d8d726b7177a8000060025534801561001d57600080fd5b506040516020806114598339810180604052810190808051906020019092919050505033600060016101000a81548173ffffffffffffffffffffffffffffffffffffffff021916908373ffffffffffffffffffffffffffffffffffffffff16021790555080600160006101000a81548173ffffffffffffffffffffffffffffffffffffffff021916908373ffffffffffffffffffffffffffffffffffffffff16021790555050611387806100d26000396000f300608060405260043610610083576000357c0100000000000000000000000000000000000000000000000000000000900463ffffffff16806347383507146100885780634c2067c7146100d457806380cb11a6146101035780638871c1631461012e5780638da5cb5b1461015b578063d1dff3ab146101b2578063ef9fa23c146101c9575b600080fd5b6100d2600480360381019080803573ffffffffffffffffffffffffffffffffffffffff16906020019092919080351515906020019092919080359060200190929190505050610220565b005b3480156100e057600080fd5b506100e961051a565b604051808215151515815260200191505060405180910390f35b34801561010f57600080fd5b5061011861052c565b6040518082815260200191505060405180910390f35b34801561013a57600080fd5b5061015960048036038101908080359060200190929190505050610532565b005b34801561016757600080fd5b506101706105e0565b604051808273ffffffffffffffffffffffffffffffffffffffff1673ffffffffffffffffffffffffffffffffffffffff16815260200191505060405180910390f35b3480156101be57600080fd5b506101c7610606565b005b3480156101d557600080fd5b506101de610699565b604051808273ffffffffffffffffffffffffffffffffffffffff1673ffffffffffffffffffffffffffffffffffffffff16815260200191505060405180910390f35b6000803411151561023057600080fd5b6000809054906101000a900460ff1615151561024b57600080fd5b600160009054906101000a900473ffffffffffffffffffffffffffffffffffffffff1673ffffffffffffffffffffffffffffffffffffffff16639dc29fac336002546040518363ffffffff167c0100000000000000000000000000000000000000000000000000000000028152600401808373ffffffffffffffffffffffffffffffffffffffff1673ffffffffffffffffffffffffffffffffffffffff16815260200182815260200192505050602060405180830381600087803b15801561031257600080fd5b505af1158015610326573d6000803e3d6000fd5b505050506040513d602081101561033c57600080fd5b8101908080519060200190929190505050151561035857600080fd5b338484846103646106bf565b808573ffffffffffffffffffffffffffffffffffffffff1673ffffffffffffffffffffffffffffffffffffffff1681526020018473ffffffffffffffffffffffffffffffffffffffff1673ffffffffffffffffffffffffffffffffffffffff16815260200183151515158152602001828152602001945050505050604051809103906000f0801580156103fb573d6000803e3d6000fd5b5090508073ffffffffffffffffffffffffffffffffffffffff1663e203bf75346040518263ffffffff167c01000000000000000000000000000000000000000000000000000000000281526004016000604051808303818588803b15801561046257600080fd5b505af1158015610476573d6000803e3d6000fd5b50505050508373ffffffffffffffffffffffffffffffffffffffff163373ffffffffffffffffffffffffffffffffffffffff167f693384e1ab379d22cb2a64d90d94ef5ae0464a1582c357aa38cb40c04930c67a8334604051808373ffffffffffffffffffffffffffffffffffffffff1673ffffffffffffffffffffffffffffffffffffffff1681526020018281526020019250505060405180910390a350505050565b6000809054906101000a900460ff1681565b60025481565b60008060019054906101000a900473ffffffffffffffffffffffffffffffffffffffff1673ffffffffffffffffffffffffffffffffffffffff163373ffffffffffffffffffffffffffffffffffffffff1614151561058f57600080fd5b6002549050816002819055507f335805f4e6fab172c9ec930ef512eab0affc6a0f0c672642b83ecf379b39866d81600254604051808381526020018281526020019250505060405180910390a15050565b600060019054906101000a900473ffffffffffffffffffffffffffffffffffffffff1681565b600060019054906101000a900473ffffffffffffffffffffffffffffffffffffffff1673ffffffffffffffffffffffffffffffffffffffff163373ffffffffffffffffffffffffffffffffffffffff1614151561066257600080fd5b6000809054906101000a900460ff1615151561067d57600080fd5b60016000806101000a81548160ff021916908315150217905550565b600160009054906101000a900473ffffffffffffffffffffffffffffffffffffffff1681565b604051610c8c806106d0833901905600608060405234801561001057600080fd5b50604051608080610c8c83398101806040528101908080519060200190929190805190602001909291908051906020019092919080519060200190929190505050836000806101000a81548173ffffffffffffffffffffffffffffffffffffffff021916908373ffffffffffffffffffffffffffffffffffffffff16021790555082600160006101000a81548173ffffffffffffffffffffffffffffffffffffffff021916908373ffffffffffffffffffffffffffffffffffffffff16021790555081600160146101000a81548160ff02191690831515021790555061010c814361011b64010000000002610ae1179091906401000000009004565b60028190555050505050610139565b600080828401905083811015151561012f57fe5b8091505092915050565b610b44806101486000396000f3006080604052600436106100ba576000357c0100000000000000000000000000000000000000000000000000000000900463ffffffff1680630532f4ff146100bf57806338af3eed146100ea5780633ccfd60b146101415780634665096d1461017057806380fc16021461019b578063872a7810146101e0578063b6549f751461020f578063b933c82d1461023e578063c3806a4b1461026d578063dc07065714610298578063e203bf75146102f3578063ec5630ca146102fd575b600080fd5b3480156100cb57600080fd5b506100d4610354565b6040518082815260200191505060405180910390f35b3480156100f657600080fd5b506100ff61035a565b604051808273ffffffffffffffffffffffffffffffffffffffff1673ffffffffffffffffffffffffffffffffffffffff16815260200191505060405180910390f35b34801561014d57600080fd5b50610156610380565b604051808215151515815260200191505060405180910390f35b34801561017c57600080fd5b5061018561050f565b6040518082815260200191505060405180910390f35b3480156101a757600080fd5b506101c660048036038101908080359060200190929190505050610515565b604051808215151515815260200191505060405180910390f35b3480156101ec57600080fd5b506101f561060d565b604051808215151515815260200191505060405180910390f35b34801561021b57600080fd5b50610224610620565b604051808215151515815260200191505060405180910390f35b34801561024a57600080fd5b506102536107c6565b604051808215151515815260200191505060405180910390f35b34801561027957600080fd5b506102826107d9565b6040518082815260200191505060405180910390f35b3480156102a457600080fd5b506102d9600480360381019080803573ffffffffffffffffffffffffffffffffffffffff169060200190929190505050610809565b604051808215151515815260200191505060405180910390f35b6102fb6109d6565b005b34801561030957600080fd5b50610312610abc565b604051808273ffffffffffffffffffffffffffffffffffffffff1673ffffffffffffffffffffffffffffffffffffffff16815260200191505060405180910390f35b60035481565b600160009054906101000a900473ffffffffffffffffffffffffffffffffffffffff1681565b60008060025443808210151561039557600080fd5b600160009054906101000a900473ffffffffffffffffffffffffffffffffffffffff168073ffffffffffffffffffffffffffffffffffffffff163373ffffffffffffffffffffffffffffffffffffffff161415156103f257600080fd5b600060035411151561040357600080fd5b6003549350600360009055600160009054906101000a900473ffffffffffffffffffffffffffffffffffffffff1673ffffffffffffffffffffffffffffffffffffffff166108fc859081150290604051600060405180830381858888f19350505050158015610476573d6000803e3d6000fd5b507f4ce7033d118120e254016dccf195288400b28fc8936425acd5f17ce2df3ab708600160009054906101000a900473ffffffffffffffffffffffffffffffffffffffff1685604051808373ffffffffffffffffffffffffffffffffffffffff1673ffffffffffffffffffffffffffffffffffffffff1681526020018281526020019250505060405180910390a1600194505050505090565b60025481565b60008043600254808210151561052a57600080fd5b6000809054906101000a900473ffffffffffffffffffffffffffffffffffffffff168073ffffffffffffffffffffffffffffffffffffffff163373ffffffffffffffffffffffffffffffffffffffff1614151561058657600080fd5b600160149054906101000a900460ff1615156105a157600080fd5b60025493506105b98643610ae190919063ffffffff16565b6002819055507f7a215a66931a0f814bce7e27541efaf7037a2d6d5c5c9199d692afe9c9813b4a84600254604051808381526020018281526020019250505060405180910390a16001945050505050919050565b600160149054906101000a900460ff1681565b60008043600254808210151561063557600080fd5b6000809054906101000a900473ffffffffffffffffffffffffffffffffffffffff168073ffffffffffffffffffffffffffffffffffffffff163373ffffffffffffffffffffffffffffffffffffffff1614151561069157600080fd5b600160149054906101000a900460ff1615156106ac57600080fd5b600354935060006003819055506000809054906101000a900473ffffffffffffffffffffffffffffffffffffffff1673ffffffffffffffffffffffffffffffffffffffff166108fc859081150290604051600060405180830381858888f19350505050158015610720573d6000803e3d6000fd5b507fe62e9391f56b79c68ee1840dc17c4b88965857d70da9a6424e76ccdc76af80d36000809054906101000a900473ffffffffffffffffffffffffffffffffffffffff1685604051808373ffffffffffffffffffffffffffffffffffffffff1673ffffffffffffffffffffffffffffffffffffffff1681526020018281526020019250505060405180910390a13373ffffffffffffffffffffffffffffffffffffffff16ff5b600460009054906101000a900460ff1681565b60004360025410156107ee5760009050610806565b61080343600254610aff90919063ffffffff16565b90505b90565b600043600254808210151561081d57600080fd5b6000809054906101000a900473ffffffffffffffffffffffffffffffffffffffff168073ffffffffffffffffffffffffffffffffffffffff163373ffffffffffffffffffffffffffffffffffffffff1614151561087957600080fd5b600160149054906101000a900460ff16151561089457600080fd5b600073ffffffffffffffffffffffffffffffffffffffff168573ffffffffffffffffffffffffffffffffffffffff16141515156108d057600080fd5b7fbc149b60e6f71260c4e8d0acd59d36354a06146e7525a305d3d00082644ce051600160009054906101000a900473ffffffffffffffffffffffffffffffffffffffff1686604051808373ffffffffffffffffffffffffffffffffffffffff1673ffffffffffffffffffffffffffffffffffffffff1681526020018273ffffffffffffffffffffffffffffffffffffffff1673ffffffffffffffffffffffffffffffffffffffff1681526020019250505060405180910390a184600160006101000a81548173ffffffffffffffffffffffffffffffffffffffff021916908373ffffffffffffffffffffffffffffffffffffffff16021790555060019350505050919050565b60003480821015156109e757600080fd5b4360025480821015156109f957600080fd5b600460009054906101000a900460ff16151515610a1557600080fd5b6001600460006101000a81548160ff021916908315150217905550610a4534600354610ae190919063ffffffff16565b6003819055507f1b851e1031ef35a238e6c67d0c7991162390df915f70eaf9098dbf0b175a61983334604051808373ffffffffffffffffffffffffffffffffffffffff1673ffffffffffffffffffffffffffffffffffffffff1681526020018281526020019250505060405180910390a150505050565b6000809054906101000a900473ffffffffffffffffffffffffffffffffffffffff1681565b6000808284019050838110151515610af557fe5b8091505092915050565b6000828211151515610b0d57fe5b8183039050929150505600a165627a7a72305820272c01a4f55d9fc95e2770ab1e4a3159d0e0255aabbbaf2771d9803be3d3aadd0029a165627a7a723058200945addc497195d3fbe1a533a2a8ef26dd0d311eb97987d2365668e0a79f31ed0029",
  "source": "pragma solidity ^0.4.24;\n\nimport './Trust.sol';\nimport './SafeMath.sol';\nimport './MyBitBurner.sol';\n\n\n// @title A factory contract that deploys new Trust contracts\n// @author Kyle Dewhurst, MyBit Foundation\n// @notice A contract which deploys Trust contracts\ncontract TrustFactory {\n\n  bool public expired;    // When true, it will stop the factory from making more Trust contracts\n  address public owner;    // Owner of the trust factory\n\n  MyBitBurner public mybBurner;         // The MyBitBurner contract instance\n\n  uint public mybFee = uint(250 * 10**18);     // How much MYB to burn in order to create a Trust\n\n  // @notice constructor: sets msg.sender as the owner, who has authority to close the factory\n  constructor(address _mybTokenBurner)\n  public {  \n    owner = msg.sender; \n    mybBurner = MyBitBurner(_mybTokenBurner); \n  }\n\n  // @notice trustors can deploy new trust contracts here\n  // @param (address) _beneficiary = The address who is to receive ETH from Trust\n  // @param (bool) _revokeable = Whether or not trustor is able to revoke contract or change _beneficiary\n  // @param (uint) _blocksUntilExpiration = Number of Ethereum blocks until Trust expires\n  function deployTrust(address _beneficiary, bool _revokeable, uint _blocksUntilExpiration)\n  external\n  payable {\n    require(msg.value > 0);\n    require(!expired);\n    require(mybBurner.burn(msg.sender, mybFee));\n    Trust newTrust = new Trust(msg.sender, _beneficiary, _revokeable, _blocksUntilExpiration);\n    newTrust.depositTrust.value(msg.value)();\n    emit LogNewTrust(msg.sender, _beneficiary, address(newTrust), msg.value);\n  }\n\n  // @notice If called by owner, this function prevents more Trust contracts from being made once\n  // @notice Old contracts will continue to function\n  function closeFactory()\n  external {\n    require(msg.sender == owner);\n    require (!expired);\n    expired = true;\n  }\n\n  // @notice can change how much MYB is burned for creating Trusts\n  function changeMYBFee(uint _newFee)\n  external {\n    require(msg.sender == owner);\n    uint oldFee = mybFee; \n    mybFee = _newFee;\n    emit LogMYBFeeChange(oldFee, mybFee);\n  }\n\n  event LogNewTrust(address indexed _trustor, address indexed _beneficiary, address _trustAddress, uint _amount);\n  event LogMYBFeeChange(uint _oldFee, uint _newFee); \n}\n",
  "sourcePath": "/home/dog/Code/mybit/microdapps/trust/ethereum/contracts/TrustFactory.sol",
  "compiler": {
    "name": "solc",
    "version": "0.4.24+commit.e67f0147.Emscripten.clang"
  },
  "schemaVersion": "2.0.0",
  "updatedAt": "2018-08-23T07:49:02.478Z"
}