{
  "contractName": "Trust",
  "abi": [
    {
      "constant": true,
      "inputs": [],
      "name": "trustBalance",
      "outputs": [
        {
          "name": "",
          "type": "uint256"
        }
      ],
      "payable": false,
      "stateMutability": "view",
      "type": "function"
    },
    {
      "constant": true,
      "inputs": [],
      "name": "beneficiary",
      "outputs": [
        {
          "name": "",
          "type": "address"
        }
      ],
      "payable": false,
      "stateMutability": "view",
      "type": "function"
    },
    {
      "constant": true,
      "inputs": [],
      "name": "expiration",
      "outputs": [
        {
          "name": "",
          "type": "uint256"
        }
      ],
      "payable": false,
      "stateMutability": "view",
      "type": "function"
    },
    {
      "constant": true,
      "inputs": [],
      "name": "revocable",
      "outputs": [
        {
          "name": "",
          "type": "bool"
        }
      ],
      "payable": false,
      "stateMutability": "view",
      "type": "function"
    },
    {
      "constant": true,
      "inputs": [],
      "name": "alreadyDeposited",
      "outputs": [
        {
          "name": "",
          "type": "bool"
        }
      ],
      "payable": false,
      "stateMutability": "view",
      "type": "function"
    },
    {
      "constant": true,
      "inputs": [],
      "name": "trustor",
      "outputs": [
        {
          "name": "",
          "type": "address"
        }
      ],
      "payable": false,
      "stateMutability": "view",
      "type": "function"
    },
    {
      "inputs": [
        {
          "name": "_trustor",
          "type": "address"
        },
        {
          "name": "_beneficiary",
          "type": "address"
        },
        {
          "name": "_revocable",
          "type": "bool"
        },
        {
          "name": "_expiration",
          "type": "uint256"
        }
      ],
      "payable": false,
      "stateMutability": "nonpayable",
      "type": "constructor"
    },
    {
      "anonymous": false,
      "inputs": [
        {
          "indexed": false,
          "name": "_sender",
          "type": "address"
        },
        {
          "indexed": false,
          "name": "_amount",
          "type": "uint256"
        }
      ],
      "name": "LogDeposit",
      "type": "event"
    },
    {
      "anonymous": false,
      "inputs": [
        {
          "indexed": false,
          "name": "_beneficiary",
          "type": "address"
        },
        {
          "indexed": false,
          "name": "_amount",
          "type": "uint256"
        }
      ],
      "name": "LogWithdraw",
      "type": "event"
    },
    {
      "anonymous": false,
      "inputs": [
        {
          "indexed": false,
          "name": "_oldBeneficiary",
          "type": "address"
        },
        {
          "indexed": false,
          "name": "_newBeneficiary",
          "type": "address"
        }
      ],
      "name": "LogNewBeneficiary",
      "type": "event"
    },
    {
      "anonymous": false,
      "inputs": [
        {
          "indexed": false,
          "name": "_trustor",
          "type": "address"
        },
        {
          "indexed": false,
          "name": "_amount",
          "type": "uint256"
        }
      ],
      "name": "LogTrustRevoked",
      "type": "event"
    },
    {
      "anonymous": false,
      "inputs": [
        {
          "indexed": false,
          "name": "_oldExpiration",
          "type": "uint256"
        },
        {
          "indexed": false,
          "name": "_newExpiration",
          "type": "uint256"
        }
      ],
      "name": "LogExpirationChanged",
      "type": "event"
    },
    {
      "constant": false,
      "inputs": [],
      "name": "depositTrust",
      "outputs": [],
      "payable": true,
      "stateMutability": "payable",
      "type": "function"
    },
    {
      "constant": false,
      "inputs": [],
      "name": "revoke",
      "outputs": [
        {
          "name": "",
          "type": "bool"
        }
      ],
      "payable": false,
      "stateMutability": "nonpayable",
      "type": "function"
    },
    {
      "constant": false,
      "inputs": [],
      "name": "withdraw",
      "outputs": [
        {
          "name": "",
          "type": "bool"
        }
      ],
      "payable": false,
      "stateMutability": "nonpayable",
      "type": "function"
    },
    {
      "constant": false,
      "inputs": [
        {
          "name": "_numBlocks",
          "type": "uint256"
        }
      ],
      "name": "changeExpiration",
      "outputs": [
        {
          "name": "",
          "type": "bool"
        }
      ],
      "payable": false,
      "stateMutability": "nonpayable",
      "type": "function"
    },
    {
      "constant": false,
      "inputs": [
        {
          "name": "_beneficiary",
          "type": "address"
        }
      ],
      "name": "changeBeneficiary",
      "outputs": [
        {
          "name": "",
          "type": "bool"
        }
      ],
      "payable": false,
      "stateMutability": "nonpayable",
      "type": "function"
    },
    {
      "constant": true,
      "inputs": [],
      "name": "blocksUntilExpiration",
      "outputs": [
        {
          "name": "",
          "type": "uint256"
        }
      ],
      "payable": false,
      "stateMutability": "view",
      "type": "function"
    }
  ],
  "bytecode": "0x608060405234801561001057600080fd5b50604051608080610c8c83398101806040528101908080519060200190929190805190602001909291908051906020019092919080519060200190929190505050836000806101000a81548173ffffffffffffffffffffffffffffffffffffffff021916908373ffffffffffffffffffffffffffffffffffffffff16021790555082600160006101000a81548173ffffffffffffffffffffffffffffffffffffffff021916908373ffffffffffffffffffffffffffffffffffffffff16021790555081600160146101000a81548160ff02191690831515021790555061010c814361011b64010000000002610ae1179091906401000000009004565b60028190555050505050610139565b600080828401905083811015151561012f57fe5b8091505092915050565b610b44806101486000396000f3006080604052600436106100ba576000357c0100000000000000000000000000000000000000000000000000000000900463ffffffff1680630532f4ff146100bf57806338af3eed146100ea5780633ccfd60b146101415780634665096d1461017057806380fc16021461019b578063872a7810146101e0578063b6549f751461020f578063b933c82d1461023e578063c3806a4b1461026d578063dc07065714610298578063e203bf75146102f3578063ec5630ca146102fd575b600080fd5b3480156100cb57600080fd5b506100d4610354565b6040518082815260200191505060405180910390f35b3480156100f657600080fd5b506100ff61035a565b604051808273ffffffffffffffffffffffffffffffffffffffff1673ffffffffffffffffffffffffffffffffffffffff16815260200191505060405180910390f35b34801561014d57600080fd5b50610156610380565b604051808215151515815260200191505060405180910390f35b34801561017c57600080fd5b5061018561050f565b6040518082815260200191505060405180910390f35b3480156101a757600080fd5b506101c660048036038101908080359060200190929190505050610515565b604051808215151515815260200191505060405180910390f35b3480156101ec57600080fd5b506101f561060d565b604051808215151515815260200191505060405180910390f35b34801561021b57600080fd5b50610224610620565b604051808215151515815260200191505060405180910390f35b34801561024a57600080fd5b506102536107c6565b604051808215151515815260200191505060405180910390f35b34801561027957600080fd5b506102826107d9565b6040518082815260200191505060405180910390f35b3480156102a457600080fd5b506102d9600480360381019080803573ffffffffffffffffffffffffffffffffffffffff169060200190929190505050610809565b604051808215151515815260200191505060405180910390f35b6102fb6109d6565b005b34801561030957600080fd5b50610312610abc565b604051808273ffffffffffffffffffffffffffffffffffffffff1673ffffffffffffffffffffffffffffffffffffffff16815260200191505060405180910390f35b60035481565b600160009054906101000a900473ffffffffffffffffffffffffffffffffffffffff1681565b60008060025443808210151561039557600080fd5b600160009054906101000a900473ffffffffffffffffffffffffffffffffffffffff168073ffffffffffffffffffffffffffffffffffffffff163373ffffffffffffffffffffffffffffffffffffffff161415156103f257600080fd5b600060035411151561040357600080fd5b6003549350600360009055600160009054906101000a900473ffffffffffffffffffffffffffffffffffffffff1673ffffffffffffffffffffffffffffffffffffffff166108fc859081150290604051600060405180830381858888f19350505050158015610476573d6000803e3d6000fd5b507f4ce7033d118120e254016dccf195288400b28fc8936425acd5f17ce2df3ab708600160009054906101000a900473ffffffffffffffffffffffffffffffffffffffff1685604051808373ffffffffffffffffffffffffffffffffffffffff1673ffffffffffffffffffffffffffffffffffffffff1681526020018281526020019250505060405180910390a1600194505050505090565b60025481565b60008043600254808210151561052a57600080fd5b6000809054906101000a900473ffffffffffffffffffffffffffffffffffffffff168073ffffffffffffffffffffffffffffffffffffffff163373ffffffffffffffffffffffffffffffffffffffff1614151561058657600080fd5b600160149054906101000a900460ff1615156105a157600080fd5b60025493506105b98643610ae190919063ffffffff16565b6002819055507f7a215a66931a0f814bce7e27541efaf7037a2d6d5c5c9199d692afe9c9813b4a84600254604051808381526020018281526020019250505060405180910390a16001945050505050919050565b600160149054906101000a900460ff1681565b60008043600254808210151561063557600080fd5b6000809054906101000a900473ffffffffffffffffffffffffffffffffffffffff168073ffffffffffffffffffffffffffffffffffffffff163373ffffffffffffffffffffffffffffffffffffffff1614151561069157600080fd5b600160149054906101000a900460ff1615156106ac57600080fd5b600354935060006003819055506000809054906101000a900473ffffffffffffffffffffffffffffffffffffffff1673ffffffffffffffffffffffffffffffffffffffff166108fc859081150290604051600060405180830381858888f19350505050158015610720573d6000803e3d6000fd5b507fe62e9391f56b79c68ee1840dc17c4b88965857d70da9a6424e76ccdc76af80d36000809054906101000a900473ffffffffffffffffffffffffffffffffffffffff1685604051808373ffffffffffffffffffffffffffffffffffffffff1673ffffffffffffffffffffffffffffffffffffffff1681526020018281526020019250505060405180910390a13373ffffffffffffffffffffffffffffffffffffffff16ff5b600460009054906101000a900460ff1681565b60004360025410156107ee5760009050610806565b61080343600254610aff90919063ffffffff16565b90505b90565b600043600254808210151561081d57600080fd5b6000809054906101000a900473ffffffffffffffffffffffffffffffffffffffff168073ffffffffffffffffffffffffffffffffffffffff163373ffffffffffffffffffffffffffffffffffffffff1614151561087957600080fd5b600160149054906101000a900460ff16151561089457600080fd5b600073ffffffffffffffffffffffffffffffffffffffff168573ffffffffffffffffffffffffffffffffffffffff16141515156108d057600080fd5b7fbc149b60e6f71260c4e8d0acd59d36354a06146e7525a305d3d00082644ce051600160009054906101000a900473ffffffffffffffffffffffffffffffffffffffff1686604051808373ffffffffffffffffffffffffffffffffffffffff1673ffffffffffffffffffffffffffffffffffffffff1681526020018273ffffffffffffffffffffffffffffffffffffffff1673ffffffffffffffffffffffffffffffffffffffff1681526020019250505060405180910390a184600160006101000a81548173ffffffffffffffffffffffffffffffffffffffff021916908373ffffffffffffffffffffffffffffffffffffffff16021790555060019350505050919050565b60003480821015156109e757600080fd5b4360025480821015156109f957600080fd5b600460009054906101000a900460ff16151515610a1557600080fd5b6001600460006101000a81548160ff021916908315150217905550610a4534600354610ae190919063ffffffff16565b6003819055507f1b851e1031ef35a238e6c67d0c7991162390df915f70eaf9098dbf0b175a61983334604051808373ffffffffffffffffffffffffffffffffffffffff1673ffffffffffffffffffffffffffffffffffffffff1681526020018281526020019250505060405180910390a150505050565b6000809054906101000a900473ffffffffffffffffffffffffffffffffffffffff1681565b6000808284019050838110151515610af557fe5b8091505092915050565b6000828211151515610b0d57fe5b8183039050929150505600a165627a7a72305820272c01a4f55d9fc95e2770ab1e4a3159d0e0255aabbbaf2771d9803be3d3aadd0029",
  "source": "pragma solidity ^0.4.24;\n\nimport './SafeMath.sol';\n\n// @title Trust contract\n// @author Kyle Dewhurst, MyBit Foundation\n// @notice This contract allows someone to leave ETH for a beneficiary once expiration is reached\n// @dev Can extend the beneficiary for multiple accounts by setting beneficiary to a multi-owned contract\ncontract Trust {\n\tusing SafeMath for uint;\n\n\taddress public trustor;        // Creator of the trust\n\taddress public beneficiary;    // Recipient of the trust\n\n\tbool public revocable;      // Can the trustor revoke the trust?\n\n\tuint public expiration;    // Number of blocks until trust expires\n\n\tuint public trustBalance;    // Amount of WEI intended for beneficiary\n\n\n\tbool public alreadyDeposited;  // Has the trustor already put in the funds for the trust?\n\n\n\t// @notice Constructor: Deploy Trust contract\n\t// @param (address) _mybitBurner = The contract address of the MyBitBurner\n\t// @param (address) _trustor = The address that is depositing ETH for the _beneficiary\n\t// @param (address) _beneficiary = The ETH address of who is to receive the trustBalance\n\t// @param (bool) _revocable = Can the trustor revoke the contract at any point before the expiration?\n\t// @param (uint) _expiration = Number of blocks until the trust is redeemable? (in seconds)\n\n\t// @dev I removed _myBitBurner as the address seems to be unused -Peter\n\tconstructor(address _trustor, address _beneficiary, bool _revocable, uint _expiration)\n\tpublic {\n\t\ttrustor = _trustor;\n\t\tbeneficiary = _beneficiary;\n\t\trevocable = _revocable;\n\t\texpiration = block.number.add(_expiration);\n\t}\n\n\t// @notice trustor can deposit WEI here\n\tfunction depositTrust()\n\texternal\n\tlessThan(0, msg.value)\n\tlessThan(block.number, expiration)\n\tpayable {\n\t\trequire(!alreadyDeposited);\n\t\talreadyDeposited = true;\n\t  trustBalance = trustBalance.add(msg.value);\n\t  emit LogDeposit(msg.sender, msg.value);\n\t}\n\n\t// @notice trustor can revoke the contract if revocable == true\n\tfunction revoke()\n\texternal\n\tlessThan(block.number, expiration)\n\tonlySender(trustor)\n\tisRevocable\n\treturns (bool) {\n\t\tuint amount = trustBalance;\n\t\ttrustBalance = 0;\n\t\ttrustor.transfer(amount);\n\t\temit LogTrustRevoked(trustor, amount);\n\t\tselfdestruct(msg.sender);\n\t\treturn true;\n\t}\n\n\t// @notice _beneficiary can withdraw trustBalance once expiration is reached\n\tfunction withdraw()\n\texternal\n\tlessThan(expiration, block.number)\n\tonlySender(beneficiary)\n\treturns (bool) {\n\t\trequire(trustBalance > 0);\n\t\tuint amount = trustBalance;\n\t\tdelete trustBalance;\n\t\tbeneficiary.transfer(amount);\n\t\temit LogWithdraw(beneficiary, amount);\n\t\treturn true;\n\t}\n\n\t// @notice this allows the expiration of the trust to be changed to _numBlocks from block.number\n\t// @param (uint) _numBlocks = Trust will expire in _numBlocks\n\tfunction changeExpiration(uint _numBlocks) //Note: This should throw if change is a negative number\n\texternal\n\tlessThan(block.number, expiration)\n\tonlySender(trustor)\n\tisRevocable\n\treturns (bool){\n\t\tuint oldExpiration = expiration;\n\t\texpiration = block.number.add(_numBlocks);\n\t\temit LogExpirationChanged(oldExpiration, expiration);\n\t\treturn true;\n\t}\n\n\t// @notice trustor can change the recipient of the trust if it has not yet expired\n\t// @param (address) _beneficiary = the address of the user to receive the Trust\n\tfunction changeBeneficiary(address _beneficiary)\n\texternal\n\tlessThan(block.number, expiration)\n\tonlySender(trustor)\n\tisRevocable\n\treturns (bool){\n\t\trequire(_beneficiary != address(0));\n\t\temit LogNewBeneficiary(beneficiary, _beneficiary);\n\t\tbeneficiary = _beneficiary;\n\t\treturn true;\n\t}\n\n\t//////////////////////////////////////////////////////////////////////////////////////////////////////////////////\n\t//\t\t\t\t\t\t\t\t\t\t\t\t\t\t\t\t\t\t\t\t\t\tView Functions\n\t//////////////////////////////////////////////////////////////////////////////////////////////////////////////////\n\n\t// @notice helper function. Returns number of seconds until Trust expires\n\tfunction blocksUntilExpiration()\n\texternal\n\tview\n\treturns (uint) {\n\t\tif (expiration < block.number) { return 0; }\n\t\treturn expiration.sub(block.number);\n\t}\n\n\t//////////////////////////////////////////////////////////////////////////////////////////////////////////////////\n\t//\t\t\t\t\t\t\t\t\t\t\t\t\t\t\t\t\t\t\t\t\t\tModifiers\n\t//////////////////////////////////////////////////////////////////////////////////////////////////////////////////\n\n\t// @notice reverts if _a >= _b\n\tmodifier lessThan(uint _a, uint _b) {\n\t\trequire(_a < _b);\n\t\t_;\n\t}\n\n\t// @notice reverts if msg.sender != _expectedCaller\n\tmodifier onlySender(address _expectedCaller) {\n\t\trequire(msg.sender == _expectedCaller);\n\t\t_;\n\t}\n\n\t// @notice reverts if trust is not revocable\n\tmodifier isRevocable {\n\t\trequire(revocable);\n\t\t_;\n\t}\n\n\t//////////////////////////////////////////////////////////////////////////////////////////////////////////////////\n\t//\t\t\t\t\t\t\t\t\t\t\t\t\t\t\t\t\t\t\t\t\t\tEvents\n\t//////////////////////////////////////////////////////////////////////////////////////////////////////////////////\n\n\tevent LogDeposit(address _sender, uint _amount);\n\tevent LogWithdraw(address _beneficiary, uint _amount);\n\tevent LogNewBeneficiary(address _oldBeneficiary, address _newBeneficiary);\n\tevent LogTrustRevoked(address _trustor, uint _amount);\n\tevent LogExpirationChanged(uint _oldExpiration, uint _newExpiration);\n\n}\n",
  "sourcePath": "/home/dog/Code/mybit/microdapps/trust/ethereum/contracts/Trust.sol",
  "compiler": {
    "name": "solc",
    "version": "0.4.24+commit.e67f0147.Emscripten.clang"
  },
  "schemaVersion": "2.0.0",
  "updatedAt": "2018-08-23T07:49:02.484Z"
}